:100000008011002089090000193A000075090000DC
:100010007509000075090000750900000000000066
:10002000000000000000000000000000F10A0000D5
:100030007509000000000000910A00007509000029
:10004000850C0000850C0000850C0000850C00006C
:10005000850C0000850C0000850C0000850C00005C
:10006000850C0000850C0000850C0000850C00004C
:10007000850C0000850C0000850C0000850C00003C
:10008000850C0000850C0000850C0000850C00002C
:10009000850C0000850C0000850C0000850C00001C
:1000A000850C0000850C0000850C0000850C00000C
:1000B000850C0000850C0000850C0000850C0000FC
:1000C000850C0000850C0000850C0000850C0000EC
:1000D000850C0000850C0000850C0000850C0000DC
:1000E000850C0000850C0000850C0000850C0000CC
:1000F000850C0000850C0000850C0000850C0000BC
:1001000008B50548836810215B699847BDE8084039
:10011000024803F094BB00BFE0460000B84900006D
:1001200070B51B4C204604F025F970B3204604F04E
:1001300021F950B317484FF4D01103F07EFA164856
:100140004FF4803103F079FAA568AE696EB1236986
:100150001B6813F0040F14BF4FF000734FF080635F
:100160004FF0A07202212046B0470C490C4B4B6067
:1001700004238B60EB6913B10548012298470021E5
:100180004FF4A02004F087F9F9E7002070BD00BF0C
:10019000E0460000F848000000490000800200200E
:1001A00001010000014B1B68184700BF0000002040
:1001B000014B1860704700BF0000002030B585B0CB
:1001C00004460D4610220021684604F0D7F90223A8
:1001D0008DF802302A46044B01932146684602F00E
:1001E000CFFF05B030BD00BFA501000080B50546BA
:1001F0000E461746984602F065FD034604F02AFABB
:10020000DFF81890044649F8003042463046394637
:10021000A84754F8090000F025FC00BF08000000C2
:100220002DE9F047058B04462807904611D4022992
:1002300005F0070540F0CC80204603F00DFB78B1B7
:100240000138218B042811D8DFE800F0C2106D8539
:10025000950001290CBF45F0100545F020052583C8
:1002600088F31188BFF36F8FBDE8F08701F0070AAC
:10027000AA4500F0A5800027B9463E46A368002B9A
:1002800000F0BC8041F00801218388F31188BFF39E
:100290006F8FA168002900F0BA800D68002900F076
:1002A000B680D1F80480334652462046C047002D20
:1002B00076D02B6829461D46F0E701F007035A1F48
:1002C000012A1BD8002221F00701062B276889B2DA
:1002D000C4E9002209D13B4603E0628B013262830C
:1002E0001B68002BF9D141F002012183204603F065
:1002F000B3FA00287AD041F0200176E0042B0AD12D
:1003000021F0070189B22183204603F0A5FA10B13C
:1003100041F020012183218B01F0070AAA454FD02B
:100320000027B946AAE7236921F0070141F0060139
:10033000062DD3F8009021832DD1B9F1000F3FD0C5
:1003400041F00801218388F31188BFF36F8F3A4988
:100350002046C84729E021F00701236941F0040144
:1003600089B2042DD3F804902183E6D000273E46BD
:100370004FF0040A82E721F00701236941F00501EB
:1003800089B2052DD3F808902183D6D000273E46A8
:100390004FF0050A72E700273E464FF0060A6DE768
:1003A0002B4687E7B9F1000FD1D1EFF31188202355
:1003B00083F31288BFF36F8F238B23F0080323830B
:1003C000258BEA062ED525F01003238305F00705BB
:1003D0006669218B002EBFF670AF00232768C4E941
:1003E000003321F0070141F001012183218B01F04D
:1003F000070AAA454FF000097FF440AF002F9CD0B8
:1004000041F00801218388F31188BFF36F8F002F1B
:10041000C8D03D68394633465246204603F048FA74
:100420002F46F4E7AB067FF51BAF25F020032383AF
:1004300005F0070500E700BFDD380000014B036051
:10044000002070470849000008B5044803F0F7F998
:10045000034803F0F4F9002008BD00BFC4490000C0
:10046000F949000008B50348034A0021121A03F0B5
:10047000CBFA08BDC0000020840300200748084ACA
:10048000084908B5121A03F0C1FA0748074A084993
:10049000BDE80840121A03F0B9BA00BF00000020FE
:1004A000BC000020AC4E0000000000200000002036
:1004B000AC4E000038B505460C4699B1D1E9012390
:1004C0000F48096803F0BBF9D4E90423E1680D483B
:1004D00003F0B5F9E1690C4803F0B1F9A1690B48E3
:1004E00003F0ADF9012D05D1EFF30581084810396E
:1004F00003F0A5F921462846BDE8384001F0FCBFCD
:10050000274A0000574A0000874A0000974A000027
:10051000C64A000030BFFFF7FDBF00BF2DE9F04124
:100520000B4EDFF8308006EB0807CC1B0546324641
:100530000949204604F014F8A01942460021083C5D
:1005400004F01CF82C6707F10800BDE8F08100BF3B
:100550000000000004000000E4480000054B5A6958
:100560009B689A421FBF044A536843F0805353600C
:10057000704700BF5403002000ED00E02DE9F84370
:10058000324D804632488946174603F058F9AB6A27
:10059000DE0622D52F4803F052F91124AB6A1D075D
:1005A00003D52D4803F04BF91224284DAB6A980768
:1005B00015D52A4803F043F96E6BAB6A190642D58C
:1005C0002748314603F03BF9B9F1000F03D0AB6A7D
:1005D00023F08003AB62132403E01024DEE76FF006
:1005E00015061A4DAB6ADA0703D51E4803F027F942
:1005F0001424AB6A9B0603D51B4803F020F915248D
:10060000124B9A6AD50602D49A6A90070AD55B689B
:10061000190507D54146304600F0EEFA10B180F3D7
:1006200009880224094B9A6A920642BF5A6A22F448
:1006300000525A629A6A42F0FF029A6200233B70AB
:100640002046BDE8F8836FF01506C4E700ED00E032
:10065000DA4A0000F14A0000254B0000394B000047
:10066000524B0000694B0000894B000010B51D4C37
:100670001D4803F0E4F8A36A990130D51B4803F044
:10068000DEF81E20A36ADA0103D5194803F0D7F873
:100690001F20144CA36A1B0303D5164803F0CFF8A0
:1006A0002120A36A590303D5134803F0C8F8222078
:1006B0000C4CA36A9A0303D5104803F0C0F823201A
:1006C000A36ADB0303D50E4803F0B9F82420054ADA
:1006D000936A6FEA03436FEA1343936210BD1D20D0
:1006E000D0E700BF00ED00E0B94B0000D24B0000A6
:1006F000E64B0000014C0000204C0000464C00007E
:10070000614C000070B5244C064624480D4603F0A9
:1007100096F8A36AD90435D5214803F090F817203C
:10072000A36A1A0503D51F4803F089F818201A4C4C
:10073000A36A9B050FD51C4803F081F8A16BA36A3F
:10074000180407D5194803F07AF81EB1A36A23F4F8
:100750000043A3621920104CA36A590503D514481D
:1007600003F06DF81A20A36ADA050DD5114803F0DD
:1007700066F81B20084A936A43F47F439362002380
:100780002B7070BD1620CBE7A36A9B04F2D50A48F4
:1007900003F055F81C20EDE700ED00E08D4C000063
:1007A000A44C0000254B0000B64C0000D04C0000CB
:1007B000E64C0000024D0000894B00002DE9F0419D
:1007C0005B4B5F688AB00446C7F30806002585F3D3
:1007D0001188BFF36F8F02F07F43B3F17F4F06D1D3
:1007E00002F00C03082B13D1524803F028F800251F
:1007F0002C464FF00008F31E8DF80780092B00F2FD
:100800008680DFE803F00A7A7E768484848484829A
:1008100010074CBF0C460125EBE74748444E03F058
:100820000EF88DF80780F36A9A0704D5434803F061
:1008300006F8002330E0F36A002B01DA4048F6E7BF
:10084000F36A5B00F5D53F4802F0F9FF7369A269CE
:1008500043F480737361BFF34F8FBFF36F8F73697E
:1008600032F8022C23F480737361BFF34F8FBFF310
:100870006F8F4DF602739A4209D0B36ADBB253B35D
:100880000DF1070201212046FFF778FE33E02168D1
:100890002D4802F0D4FF23689DF80720C2B902AEAC
:1008A00004F1200720686168324603C20834BC4264
:1008B0001646F7D1099AB5B3C2F3080121B96FEA18
:1008C00052226FEA4222099202A91846FFF7F2FD6E
:1008D0000AB0BDE8F081B36A13F47F4F05D00DF183
:1008E00007010120FFF70EFF05E0B36AB3F5803F73
:1008F0009FD3FFF7BBFE0346CEE70DF107020021B1
:10090000C1E70DF107010020ECE710488FE7104B1D
:100910001049114817F4F87FA6F1100218BF1946C4
:1009200002F08DFF85E722F4FF7222F00102CAE790
:1009300000ED00E0494D0000754D00008D4D0000B8
:10094000AF4D0000BE4D0000DE4D0000FB4D00002D
:10095000304D00001B4D0000204E0000044B5A6932
:1009600042F010025A615A6922F008025A61704737
:1009700000ED00E0EFF30880EFF3098101B5724666
:10098000FFF71CFF01BD00BF002080F31488BFF3F8
:100990006F8F0F4880F3088801F07CFA00200D4922
:1009A0000860BFF34F8F00F02BF8202080F31188F0
:1009B00009484FF40461401880F30988EFF314806C
:1009C0000221084380F31488BFF36F8F00F0E4F82E
:1009D0008011002094ED00E0C00300200749D1F809
:1009E00090200023C2F307221846934200DB704791
:1009F000C1F89830C1F8A0000133F6E700ED00E03F
:100A000008B572B6002383F31388FFF7E7FF144B92
:100A10004FF0FF32C3F88020C3F88420C3F8882049
:100A2000C3F88C20C3F89020C3F89420C3F8982012
:100A3000C3F89C20C3F88021C3F88421C3F888211F
:100A4000C3F88C21C3F89021C3F89421C3F89821EE
:100A5000C3F89C2162B6BFF34F8FBFF36F8F08BD01
:100A600000E100E0084B9B6883420BD1EFF3058364
:100A700043B1064B5A6842F080525A605A6A22F4D7
:100A800000425A6202F024B95403002000ED00E055
:100A900014498A684FF030001044EFF3098C80E865
:100AA000F01F202080F31288BFF36F8F0E4F4FF09E
:100AB00000664A698A603E60106F0C4C2060506F7F
:100AC0000023536780F3118804B5104600F0F8F84E
:100AD000BDE8044002F1300090E8F01F8CF3098873
:100AE000704700005403002004ED00E08C02002059
:100AF0001EF0040F0CBFEFF30880EFF3098081694B
:100B000011F8021C0229FFD001B5724602F080FFE5
:100B100001BD00BF40B2002807DB044A41090123A0
:100B200000F01F00834042F82130704700E100E0F0
:100B3000054B420900F01F0053F82220012303FA5D
:100B400000F01040704700BF00E100E040B2002814
:100B5000A8BF00F1604001F10101B8BF064B4FEAA8
:100B60004111ACBF00F5614000F00F00C9B2B4BF45
:100B7000195480F80013704714ED00E0044B054A47
:100B800023F07F039360BFF34F8FBFF36F8F7047E6
:100B90000000000000ED00E008B5FFF7EFFF074A96
:100BA000D2F8883023F47003C2F88830FFF75AFC7B
:100BB000FFF764FC00F05AF801F066FD00ED00E07C
:100BC00042F8203C009B42F81C3C0A49019B42F839
:100BD000183C029B42F8143C21F001014FF0807355
:100BE00042F8043C42F8081C0023203A026543679F
:100BF000704700BFED010000094A0346906870B1DC
:100C000013F1160F006E05D0A0F140029A4205D8EC
:100C1000834203D2814228BF0020704700207047E2
:100C20005403002008B515460B4A0C4B9060026F28
:100C30001A600E4600F044F82C4686F3098800201E
:100C4000034B98472046002100220023014C2047F7
:100C5000353A0000ED010000540300208C02002012
:100C6000014B10221A61704700ED00E00448002398
:100C70002021C2180133302B82F80013F9D17047BC
:100C800000E100E008B5EFF30583064A103B02EBF4
:100C9000C30152F8330049688847BDE80840FFF7B0
:100CA0005DBC00BF18470000024B034A0348012106
:100CB00000F076B800000220000000200849000083
:100CC000026E054B403A1A60044A4021C3E9011202
:100CD0001846012100F06EB89002002000000B15AC
:100CE000084AC2F898000B6823F01F03034343F03F
:100CF0001003C2F89C308B6843F00103C2F8A030A7
:100D0000704700BF00ED00E02DE9F043DFF86080A0
:100D100085B00E461F4604464FF00009B14523DA60
:100D20006068D8B13FB1411E08421BD11F2819D9B4
:100D30002368194216D12368019302F09EFEA3682E
:100D400003430393D8F89050C5F30725D0B2013D73
:100D5000A84207D801A9FFF7C3FF421C09F1010906
:100D60000C34DBE76FF01502104605B0BDE8F083E8
:100D700000ED00E0044B0522C3F89420BFF34F8F31
:100D8000BFF36F8F704700BF00ED00E0BFF35F8FD0
:100D9000024B0022C3F89420704700BF00ED00E032
:100DA00010B5034C01232278FFF7AEFF207010BD71
:100DB0008003002008B50B4A00231278FFF7A4FF38
:100DC00010F1160F07D0084A0021D2F89030C3F373
:100DD0000723984200DB08BDC2F89800C2F8A010B3
:100DE0000130F2E78003002000ED00E02DE9F04340
:100DF0005B4B5C4CD3F890302568C3F307239D42CE
:100E000085B000F2A980FFF7C1FF00200C268542C3
:100E10001BD1554C554F25706846FFF70FFBDFF887
:100E20004081DFF84C9106460025AE4214D123786C
:100E30004B490020D1F89020C2F307229342C0F220
:100E40008580FFF797FF002045E0616806FB0011F1
:100E5000FFF746FF0130DAE7009800EB05114FEA93
:100E6000051CCB683B40B3F5000F4DD00AD8B3F555
:100E7000001F33D0B3F5800F3BD0B3F5801F13D0E4
:100E80000135D2E7B3F1007F47D0B3F1805F4DD099
:100E9000B3F1807FF4D150F80C3088684A6802F0D2
:100EA000ECFD40F0887009E050F80C3088684A6822
:100EB00002F0E3FD40F0885040F43020CDE90123FA
:100EC0000390D8F890302078C3F30723013B984271
:100ED00035D96FF0150005B0BDE8F08350F80C303F
:100EE00088684A6802F0C9FD40F0885040F400204C
:100EF000E4E750F80C3088684A6802F0BEFD40F024
:100F0000C06040F40030D9E750F80C3088684A6877
:100F100002F0B3FD40F08270D0E750F80C308868E2
:100F20004A6802F0AAFD40F48020C7E750F80C3070
:100F300088684A6802F0A1FD40EA0900BEE701A9FD
:100F4000FFF7CEFE23780133237099E7C1F898307C
:100F5000C1F8A00001336DE74FF0FF30BBE700BFE1
:100F600000ED00E014490000800300200000F0FFC5
:100F70000000021108B5024B1B689847002008BD0D
:100F80009C020020034B044A1860937843F002034C
:100F9000937070479C0200200400002008B50649A9
:100FA000064821F00701C1F1005202F5003202F0BB
:100FB000ECFB002008BD00BFC7110020A0020020EC
:100FC000044A0123C2F840354FF080420020C2F8A5
:100FD0007835704700E0014048B1054B054A1B6871
:100FE000B3FBF2F35843044B43F001031847704737
:100FF000A000002040420F00F0480000084B70B5F0
:10100000C31A0D4607499B1004465943064840221F
:1010100002F051FD2B4601462046BDE870401847BE
:10102000C0020020B76DDBB6A846000073B50C4CBB
:101030000C4A4023041B00930D460B460A49A4109A
:1010400061430646094802F062FD011E05DA30469A
:101050002B4602B0BDE87040184702B070BD00BF1B
:10106000C0020020793B0000B76DDBB6A846000047
:101070000022F8B5012105461046FFF767FD10482C
:1010800000F0BAFF0446B8B900F0D6FF2F690D4949
:10109000384602F030FC031E09DB01263E642D6950
:1010A000084905F11C0002F026FC031E02DA1C466A
:1010B0002046F8BDEE64FBE76FF00404F8E700BFDC
:1010C000F5110000344900001FB500220123CDE9CD
:1010D0000223094ACDF800D06B46CDF804D002F0C7
:1010E00044FD002805DB4FF480420023684601F0F0
:1010F00065FB05B05DF804FB8B3B000010B5EFF31A
:101100001184202383F31288BFF36F8F074A13687B
:1011100023F00201DB07116002D4012002F0FAFD86
:1011200084F31188BFF36F8F10BD00BF1003002040
:1011300030B4104B0C2202FB003301460020D3E9EF
:101140000E529863EFF31180202484F31288BFF3CA
:101150006F8F1C6C04F0C00444F002041C6480F324
:101160001188BFF36F8F1DB12B46034830BC184761
:1011700030BC7047C0020020A846000010B4EFF356
:101180001182202383F31288BFF36F8F1748016801
:1011900041F002040460C80707D482F31188BFF34A
:1011A0006F8F012010BC02F0ADBD4FF08041D1F82F
:1011B0000C04D1F80C14C907EFD5EFF3118083F3B9
:1011C0001288BFF36F8F0A490B6C03F0C00343F022
:1011D00002030B6480F31188BFF36F8F82F31188D1
:1011E000BFF36F8F002010BCFFF7A2BF10030020D9
:1011F000C002002010B1012804D07047034B1B6CC3
:101200005B0701D1FFF794BF704700BFC002002009
:101210002DE9F0413849BFF35B8F0746012251E8C1
:10122000003F41E800200028F9D1BFF35B8F33B9BC
:10123000324933484B60CB608A6002F06FFB7B1E03
:10124000012B2BD8012F07D14FF08043D3F81C344A
:1012500003F00303012B21D003F0ADF80546F8B9E4
:10126000284B1B78E3B14FF080430222C3F80823D8
:101270000646DFF894804FF08044D4F81824D4F860
:101280001834D20315D503F00303012B01D0012F2D
:101290000FD155B386F31188BFF36F8FBDE8F0818E
:1012A000EFF31186202383F31288BFF36F8F01259C
:1012B000DFE7ADB1304602F0D1FBD4F81835002B92
:1012C000DBD1D4F80421002AD7D0C4F80431D4F8F3
:1012D00004310123C4F81835C8F88031A360CCE785
:1012E0000021212003F0D7F8E7E74FF080430222E6
:1012F000C3F80423D2E700BFBC020020AC020020E8
:10130000DC0200208103002000E100E008B507486E
:1013100003F030F838B10648FFF734FE0448FEF712
:1013200047FF002008BD6FF01200FBE7FC460000FD
:10133000351300000A2838B5074D044604D1AB68C0
:101340000D215B6828469847AB6803485B68E1B2AB
:101350009847204638BD00BFFC460000F0B5446801
:101360001646A068227C01F01F0587B045EA4215A9
:1013700000286DD0B6F5001F04D1294602F0DCFF2D
:10138000002056E06268607CC2F8240501AA0020B3
:10139000B6F5800F0190506037D1B3F1007F14BFD4
:1013A000052304238DF804300023CDE9042303939F
:1013B000E36823FA01F111F001010DF103073AD1BD
:1013C000B6F1A07F37D105F01F036A0903F5E0737A
:1013D00026D0012A3FD1214A52F82330DB072AD4F4
:1013E000A0683A46294602F01DFF16301BD002972E
:1013F000A06803AA294602F0E1FD002819DBA068D5
:101400000122294602F045FFBAE7B3F1C06F05D0CB
:10141000B3F1007F14BF01230223C3E70323C1E715
:101420004FF0A042D8E7A068394600F071FF0028CD
:10143000DDDA07B0F0BDA0683A46294602F0F2FEB8
:101440000028D5D19DF80310A06800F05BFFCFE71E
:101450006FF08500EDE751F82330FFDE0003005008
:10146000420970B5034602D0012A17D070BD0D4E57
:10147000326951680029F9D003F01F0301250C6877
:101480009D400029F2D08A682A4002D04B6830463D
:1014900098472CB1236821461C46F2E7024EE7E745
:1014A0002346F8E7E0460000C446000038B545682A
:1014B000A86890B102F0E5FE014670B9A86802F094
:1014C000C4FE044658B902460649A86802F0A7FEC1
:1014D000224605210620FFF739FB002038BD6FF0BA
:1014E0000400FBE7611400002DE9F043476840F277
:1014F0000636D0063B7C87B002EA060654BFC2F32C
:10150000401C4FF0030C01F01F05B6F5837F144615
:1015100045EA43158DF803C045D00DD8062E16D0E8
:1015200005D8A6B1022E40D06FF0150038E0B6F510
:10153000807FF9D101260AE040F20222964236D09D
:10154000B6F5407F35D0B6F5007FEDD102260123F8
:10155000220303FA01F12ED57B68C3F80815B86899
:1015600090BB05F01F036D092BD0012D75D13D4AAD
:1015700002EB830284F48033D2F80017C3F30043F4
:10158000C4F3404444EA430421F4E16144EA8C0496
:1015900021F0070144EA06230B43C2F8003700207C
:1015A00007B0BDE8F0830726D1E70426CFE705267C
:1015B000CDE70326CBE7630344BF7B68C3F80C1574
:1015C000CDE74FF0A042D3E70DF10202294602F029
:1015D00029FE14F4403F80460CD1B868294602F039
:1015E00056FEB8F1000FDAD19DF80210B86800F08D
:1015F00089FED4E74FF0000901ABCDE90199CDE9AF
:101600000439CDF80C90B86803AA294602F0D6FC3C
:101610004845C4DB14F4003314D084F480349DF8BE
:1016200003308DF80E30C4F300448DF80C608DF853
:101630000D40B8684B4603AA294602F077FD002802
:10164000CFDAACE7CDE904330DF103030393B868B7
:1016500003AA294602F0B2FCF1E703F5E07350F863
:101660002330FFDE00030050036803F01F025B0914
:10167000026004D0012B034818BF002070474FF0D0
:10168000A0407047000300502DE9F04FDFF84C8177
:10169000DFF84C9185B09246834600EB810140F221
:1016A000FF17594503D1002005B0BDE8F08FDBF8E6
:1016B00000305804C3F3C322C3F3080400F1878049
:1016C000BC4218F802604FEA136311D00C2B1CD9EE
:1016D0004E2B7FD1CAF8144503A80394FFF7C4FF2B
:1016E000039B012505FA03F3C0F808352A4647E0B5
:1016F0000C2B08D94E2B6DD14FF0FF33CAF814359F
:101700000BF1040BCDE74FF0FF340C2B62D8DFE870
:1017100003F0070C122B15252B616161612E5B0014
:10172000CAF80C45631CD7D1EAE7CAF81445621C15
:10173000E6D00025DAE7CAF80845F3E7651CCAF8E1
:101740000845DDD0002503A80394FFF78DFF039B18
:10175000012202FA03F3C0F80C3511E0601CCAF84C
:101760000C45CDD00125EEE7CAF81045DFE7CAF8F1
:101770000845002EDBD1631CC2D000252A46062670
:10178000DBF80030019303F40040002818BF00226A
:1017900003A8009218BF01250394FFF765FF039C7F
:1017A000019B009A00EB8400C3F3412CD0F8004762
:1017B000330243EA8C03134304EA0904234343EA54
:1017C0004503C0F800379BE7CAF80C45D1E76FF036
:1017D000150069E76FF0850066E700BF6E4E0000F8
:1017E000F0F8FCFF074BD3F8082142B10020C3F802
:1017F0000801D3F80821D3F818350B7070474FF063
:10180000FF30704700200040024BD3F88004C3F83B
:101810008004704700200040F8B50E4602F0CBFD72
:101820001A4D78BB64240127BFF35B8F55E8003F56
:10183000002B03D145E80072002AF7D1BFF35B8F7C
:1018400007D021200021013C02F025FE14F0FF0406
:10185000EAD10F4C0023C4F81C31D4F81C31012309
:10186000A360C4F81C6542F21076D4F81C3123B989
:10187000012002F00AFA013EF7D10123E3600023C0
:101880002B60F8BD01232B60E3E700BF2C03002091
:1018900000200040F7B5604A436805690024C2F89B
:1018A00000451F68064601AA2146384602F0CBF9DA
:1018B00000280FDB019B3A6819791868FFF7E4FEEE
:1018C000002807DB6B793769012B06D0032B03D087
:1018D0006FF0850003B0F0BD1024AB79032BF7D176
:1018E000E9790029F4D12A79012A1AD0022A1AD0DA
:1018F000002AEDD111462B68B3F5164F6DD02FD8C5
:10190000B3F5165F6BD018D8B3F5966F69D00CD8C5
:10191000B3F5967F68D0B3F5167FD9D14FF41C3359
:1019200045E04FF480710E22E5E7B3F5166F5ED007
:10193000B3F5965FCCD1394B39E0B3F5E14F59D0CF
:1019400007D8B3F5615F57D0B3F5964FC0D1344B8C
:101950002DE047F612208342BAD14FF4000326E06F
:10196000B3F5613F4BD011D8B3F5963F49D008D8B5
:101970004DF6C020834246D0B3F5614FA8D1294B24
:1019800015E0B3F5E13FA3D1274B10E0B3F5612F8C
:101990003CD007D8254883423AD0B3F5E12F97D100
:1019A000234B04E02348834292D14FF080531A4ED8
:1019B00014430C43C6F82435C6F86C4595E803007B
:1019C00087E8030004230020C6F80035C6F80801A4
:1019D000D6F80831012333607CE7174BE7E7174B54
:1019E000E5E74FF49E23E2E74FF4A033DFE74FF43F
:1019F0001D23DCE7124BDAE74FF46C13D7E7114BEA
:101A0000D5E7114BD3E74FF46503D0E70F4BCEE793
:101A10004FF08063CBE700BF0020004000B0130010
:101A200000A04E0000F0EB0000E0D70190D00300D2
:101A300000705F0740420F0000509D0000502700DB
:101A400000F0750000B0AF0300903A0100D0BE0E68
:101A500070B5012383400E4ABFF35B8FDC4352E82D
:101A6000001F01EA040542E80056002EF7D1BFF33B
:101A70005B8F4FF4803282400648C0F80823BFF3E2
:101A80005F8FBFF36F8F0B4214BF0120002070BD2A
:101A9000340300200010014070B40E49D1E9003435
:101AA000D01AC31844F1000422F07F46C1E9003483
:101AB000A6F50013B3F5400F09D2074B1B681A0AAD
:101AC0001B069C19054B42F10005C3E9004570BC9B
:101AD00001F0DEBAD000002038030020D80000203A
:101AE00011B3BFF35B8F0123104A834052E800CF4C
:101AF0004CEA030C42E800C10029F7D1BFF35B8F29
:101B00000B4A4FF480338340C2F80433094BBFF3D0
:101B10005B8F1B68BFF35B8FC340DB0742BF064B85
:101B20004FF40032C3F80021704700BF3403002097
:101B3000001001403003002000E100E00D4B186868
:101B4000010A0006BFF35F8F0B4BD3F8043518185A
:101B500041F10001B3F5801F0AD2084BD3E90023FD
:101B6000904271EB030303D210F1807041F1000148
:101B7000704700BF3803002000100140D80000204B
:101B80002DE9F04F85B016461F469DF840A004464B
:101B9000FFF75EFF0190FFF7D1FFB04271EB070343
:101BA00054D23E4B301A67EB0101984271F10001AB
:101BB0004FD23B4B03EB0413D3E902239F4208BFF0
:101BC00096425ED037494FF4803804F1500508FA48
:101BD00004F8AD00C1F848832046ADB202F046F8E3
:101BE00026F07F4B05F1804504F5A87305F588358F
:101BF000DC464FF003090293029A2CF07F4341F830
:101C00002230C1F84483D1F80435274A6FF002002E
:101C1000C01A604420F07F40904232D9286868B1F1
:101C2000D1F804350393A3EB0B0020F07F40B0F50F
:101C3000000F26D9204602F019F8039BBAF1000FD5
:101C400007D109EB030C09F10109D5E7BAF1000F3F
:101C500009D06FF0150520460199FFF741FF28468E
:101C600005B0BDE8F08F0123104ABFF35B8FA3409E
:101C700052E8000F184342E800010029F8D1BFF3F1
:101C80005B8F07490E98230101EB0412C8500F9B8C
:101C90005360C2E902670025DDE700BF0100800054
:101CA000C000002000100140FDFF7F003003002035
:101CB0007FB51C4C1C4BC4F80833C4F848331B4B8D
:101CC00000254FF0FF304FF0FF31C4F80855C3E94D
:101CD00002014FF48033C4F80433154B02264FF44D
:101CE00000320121C4F804631120C3F880212A4680
:101CF000FEF72CFF1120FEF70DFF0E4A0123A36013
:101D0000236013600C4B0D4A0093CDE9015500236D
:101D10002846FFF735FF3046FFF77AFA284604B029
:101D200070BD00BF0010014003000F00C000002084
:101D300000E100E034030020991A0000FFFF7F005B
:101D40002DE9F7432F4CD4F8043399070BD5D4F879
:101D5000043143B12C4A0023C4F80431D4F80431CF
:101D6000136801331360D4F80433DA0329D5BFF3C1
:101D70005B8F264B53E8002F22F0010143E800104F
:101D80000028F7D1BFF35B8FD30702D4D4F84031DA
:101D9000BBB10025C4F84051D4F84031FFF7CEFE66
:101DA000EFF31182202383F31288BFF36F8F184B58
:101DB000D3E90267B042B94106D282F31188BFF37A
:101DC0006F8F03B0BDE8F0834FF0FF384FF0FF395D
:101DD000C3E90289D3E900101D604FF48033C4F8D1
:101DE0004833C4F84051D4F8403182F31188BFF32E
:101DF0006F8F0029E5D0009032463B462846884741
:101E0000DFE700BF0010014038030020300300204E
:101E1000C000002030B5431C124C85B005D0844270
:101E2000A8BF0446012CB8BF0124FFF787FE0E4B64
:101E30000C4DD3E90013401AB0F5000F10D2221850
:101E4000AA4228BF2A4652184FF0000007490091C5
:101E5000CDE9010043F10003FFF792FE05B030BD6C
:101E60002A46F0E7FFFF7F00D0000020991A00000B
:101E700008B5FFF763FE024B1B68C01A08BD00BF20
:101E8000D0000020024AD2F80034002BFBD070476B
:101E900000E0014010B54FF08053D3F830210D2AF7
:101EA00055D14FF080410022C1F80C21C1F810211A
:101EB000C1F83825464AD3F80404C2F82005D3F8FF
:101EC0000804C2F82405D3F80C04C2F82805D3F896
:101ED0001004C2F82C05D3F81404C2F83005D3F866
:101EE0001804C2F83405D3F81C04C2F84005D3F82E
:101EF0002004C2F84405D3F82404C2F84805D3F8F6
:101F00002804C2F84C05D3F82C04C2F85005D3F8C5
:101F10003004C2F85405D3F83404C2F86005D3F88D
:101F20003804C2F86405D3F83C04C2F86805D3F855
:101F30004004C2F86C05D3F84434C2F87035D1F8C7
:101F40000034DB0709D56FF00103C1F800344FF00E
:101F50008053D3F830310D2B0CD14FF08053D3F890
:101F600034313BB14FF01023D3F808224FF08043B7
:101F7000C3F858254FF01023D3F80022002A03DBC2
:101F8000D3F80432002B22DA124901234FF010203B
:101F9000C1F804351224FFF775FFC0F80042FFF7BF
:101FA00071FFC0F80442FFF76DFF0023C1F804354C
:101FB000FFF768FFBFF34F8F0749084BCA6802F469
:101FC000E0621343CB60BFF34F8F00BFFDE710BD4E
:101FD00000C0004000E0014000ED00E00400FA0510
:101FE000014B00201B6818473C030020014B1B6875
:101FF000184700BF3C03002010B50C4C237993B95F
:10200000012323710A4B2060002818BF184600F0F6
:1020100023F850B923680748002BBDE8104008BFDB
:10202000184600F05BB86FF0770010BD3C0300204D
:10203000E11F0000ED1F000008B5064B1B683BB117
:102040000020FEF775FD18B9BDE80840FEF762BD37
:1020500008BD00BF3C030020054B0246187918B9A3
:102060001A6001221A7170476FF07700704700BF45
:10207000440300204FF080430022C3F80021D3F82E
:102080000021094901221A60096811B1C3F804232B
:102090007047D3F80021002AFBD00022C3F80021AA
:1020A000D3F80031704700BF440300204FF0804355
:1020B000D3F80423D2070DD5D3F8002152B1002262
:1020C000C3F80021D3F800210122C3F80823024BF2
:1020D0001B681847704700BF44030020074A137964
:1020E00043B90121106011714FF080421846C2F8C7
:1020F000183570476FF07700704700BF4C03002021
:1021000010B54FF080431D4CD3F81814D3F81824A1
:1021100011F4803F19D002F00302012A03D00AB162
:1021200001F025FE00224FF08043C3F8182500225D
:10213000C3F80421D3F8042101229A60226872B9FD
:10214000D3F80421002AFBD011E0D3F81424D107DE
:10215000E8D5D3F81C249207E2D422681AB10222EF
:10216000C3F8042310BDD3F80421002AFBD00022B9
:10217000C3F80421D3F80431F4E700BF4C03002076
:10218000F8B54FF08043194FD3F80443012504F00C
:102190001A04002604B9F8BDB4FA84F0C0F11F0097
:1021A000830003F580739BB203F1804305FA00F2CC
:1021B000196824EA02040029ECD01E601B684FF065
:1021C00080430128C3F808230CD1D3F81824D3F88E
:1021D0001824920706D10222C3F81805C3F8042375
:1021E0009860D7E73B68C0B29847D3E74C0300201C
:1021F000036803F01F025B09026004D0012B03484F
:1022000018BF002070474FF0A040704700030050F7
:10221000034A430900F01F00D35C1844C0B2704762
:10222000844E0000034611F0010030B5CCB213D14A
:10223000A207C4F3400020D5124AD2F82005586006
:102240004FF08053C2F82005D3F830310D2B15D054
:10225000003818BF012010E04FF0A0414FF080552A
:10226000D1F820251A60C1F82025D5F830510D2D60
:1022700008BFD1F82015002ADAD030BDD2F82035B9
:10228000E6E700BF00030050F7B504460846FFF735
:10229000BFFF06B204EB46060D46B38ADB072BD51B
:1022A000204601F068FE2946204601F0D3FD58B1D2
:1022B000204601F0E5FD276800B207EB800300220D
:1022C000C3F81025C3F810252946204601F001FE69
:1022D0000021B18201A80195FFF78AFF019B00EB65
:1022E0008300074BD0F80027134043F00203C0F8E7
:1022F0000037084603B0F0BD6FF01500FAE700BFE5
:10230000F0F8FCFF014801F0E0BC00BFA400002091
:1023100010B504480C4601F0BAFC0028A4BF207098
:10232000002010BDA40000202DE9F04F804689B0A8
:1023300058F804ABDAF80413C9B28346082241F016
:102340000041504601F0EFFD051E2BDA002303216A
:1023500006A8CDE90633FFF765FF644B01930DF145
:1023600018090023019A009312F8013B6049019279
:10237000DA0803F007038A5C22FA03F3DA071AD4B7
:10238000009B09F10409A3B14FF00041002250461F
:1023900001F0C9FD032106A8FFF744FF0028DCD1A6
:1023A00025F000450124002D40F08A8009B0BDE8E9
:1023B000F08F0123D6E7009B4E4A13440293D9F8CD
:1023C00000100029DCD0029B91FAA1F11C78B1FA2F
:1023D00081F141EA44142046FFF71AFF0BEB40005D
:1023E0000594878AC808BB0819F80020039301F0F8
:1023F0000701012303FA01F122EA010209F8002092
:1024000005A8FFF7F5FE059A039B02F5E072C7F3F6
:10241000820650F822205B073746C2F3014233D5CB
:10242000D6B240463A46214601F034FD05A805944F
:10243000FFF7DEFE059B03F5E07350F82330C3F38E
:1024400001439E4207D10021204601F0F4FC3146B1
:10245000204601F0F0FC05A80594FFF7C9FE059B96
:10246000012202FA03F3C0F820354FF08053D3F86D
:1024700030310D2B01BFD0F82035D0F82035D0F801
:102480002035D0F820359AE7022A0DD103212046C5
:1024900001F0D1FC06F00503012BDCD13A462146C0
:1024A000404601F0F7FCD6E702212046039201F0F6
:1024B000C2FC032EF2D0039A032ACCD1022EECE701
:1024C00095FAA5F3B3FA83F304FA03F225EA0205B9
:1024D00003F5A2720BEB43035AF82220B3F87010F5
:1024E000C2F30142404601F0D5FC5CE7944E000087
:1024F0009C490000944E000038B5EFF3118520236D
:1025000083F31288BFF36F8F064B9C6801F045FF81
:1025100085F31188BFF36F8F2046BDE83840FEF782
:10252000A1BA00BF5403002038B50A4B53F820402D
:10253000013053F82050A54200D838BD606830B152
:10254000037EDB0701D401F0FDFE0834F3E72368C6
:102550009847FAE7A049000070B52A4B2A4C2B4D4A
:10256000012286B003201A70FFF7DEFF01F0F7FFAB
:102570000420FFF7D9FF2646AE4204F1300410D301
:1025800000F0ACFA204C224EAC4226D300F0BAFA4E
:10259000FDF7C6FD1F4A137B23F00103137306B03A
:1025A00070BD54F80C3C059354F8103C049354F857
:1025B000143C039354F8183C029354F81C3C0193C8
:1025C00054F8203C009354E90A2354E90C0100F02C
:1025D0001BF954F8303C5E65CDE7D4E90A23B3F12A
:1025E000FF3F08BFB2F1FF3F05D052EA0301206868
:1025F00003D100F043FB3034C6E73146183000F019
:10260000B7FCF8E7810300209848000098480000D4
:102610008F4400006001002070B5002386B00122C5
:10262000CDE90423134E144D01930F22CDE902325C
:102630001249142303FB005506EBC01604464FF461
:10264000C07000FB04110E4B00954FF4A072304691
:1026500000F0DAF8737B0B4AEE6023F00403737327
:102660004FF4046304FB033313442C746B6006B013
:1026700070BD00BFE000002054030020000C0020CB
:10268000A1430000C0030020BFB50020FFF74CFFAE
:10269000284B83F30888284C284F636943F4007360
:1026A00063610025E02384F82230E577257665769E
:1026B000A57684F82050636A43F4E023636284F8CB
:1026C0002350FEF74BF9FEF7CBFA4FF0FF33A3622E
:1026D000E362FEF78BFBFEF7E7FA1948194C00F0AE
:1026E000DFF80120FFF720FF0220FFF71DFF00F0B9
:1026F0003DFA154B15495C61154B05930123CDE956
:1027000003534FF480623B46CDE9015500952046C6
:1027100000F07AF8627B064622F0040220466273DB
:1027200001F089FE2846FFF777FF3A4631462046FA
:10273000FEF778FA000C002000ED00E059250000BB
:10274000E00100206001002054030020800D0020E3
:10275000964E000070B5EFF31186202383F31288A4
:10276000BFF36F8F0468A0421AD0CCB1D4E9003215
:1027700013605A60637B002523F002036373C4E98E
:102780000055A56004F1180001F0BDFE2046A567C4
:1027900001F051FE31460848BDE8704000F078B9BC
:1027A000D0E902329A4218BF0133836086F3118860
:1027B000BFF36F8F70BD00BF8203002013B5EFF32E
:1027C0001181202484F31288BFF36F8F846844B191
:1027D000013C846081F31188BFF36F8F002002B049
:1027E00010BD52EA030406D181F31188BFF36F8F45
:1027F0006FF00F00F3E7CDE900230246014800F037
:1028000025F9ECE7820300202DE9F043073285B07B
:1028100022F007020E461F461099017300F158037B
:102820007F32C0E916330446002322F03F02042120
:10283000836041733F2A0F98A073C4E90633E373A2
:1028400006F14009A2F1400805D883F31188BFF3CF
:102850006F8F084602DFB51829462046FDF75EFE59
:1028600007300E9B20F00700A066C4E91898029379
:102870000D9B01932D1A0C9B00932A463B46314633
:102880002046FEF79DF900236365044B9B6803B166
:10289000DB6EE366284605B0BDE8F08354030020F4
:1028A00040F2011383810023C0E91833C366014B52
:1028B0009860704754030020094A93686FF00A013A
:1028C0009967084958674B6843F080534B60002371
:1028D00083F31188BFF36F8F9368986F704700BFC1
:1028E0005403002000ED00E070B590F90D20437B0B
:1028F000002A36DBD90634D11B4C63F07F03224615
:10290000437352F8183FE169934207D1C0E90021AF
:102910000860E06111E09942F8D01B68002BF5D007
:1029200090F90E5093F90E60B542F4D0AE42F2DD4C
:102930005968C0E9003108605860A569954200D027
:1029400005B9E568A3685A7BD20604D1DA897F2AE3
:1029500001D9AA6932B1AB4202D0284600F088FA08
:10296000656170BD6361FCE75403002038B590F9E0
:102970000D20437B002A014604DA03F07F034373F2
:1029800001F01FFD0D4D2A46AB6852F8184F9442D6
:1029900000D004B9EC688B4207D05A7BD20604D130
:1029A000DA897F2A01D9A2692AB1A34202D020463E
:1029B00000F05EFA23466B6138BD00BF540300206F
:1029C000B3F1FF3F08BFB2F1FF3F03D00249183017
:1029D00000F0CEBA704700BF8F44000038B5194CE4
:1029E000A168E0690B68814214BF1A460022496859
:1029F0000B605960A368E1692AB9134AC3E9002151
:102A00000B60E3610CE093F90E0092F90E50A842BE
:102A100014D0854212DD5168C3E900210B60536078
:102A2000A569094B9D4200D005B9E568A3689D42A0
:102A300002D0284600F01CFA656138BD9142DCD016
:102A40001268D9E7540300206C030020F8B50E4B40
:102A50000C4611460D4A98681060DDE90667EFF3F1
:102A60001182202282F31288BFF36F8F9D6828465F
:102A700001F0B9FC284632463B46FFF7A1FF20464D
:102A8000BDE8F840FFF718BF54030020740300208E
:102A900049B9EFF3058030B9054B5A699B689A42F2
:102AA00001D0FFF709BF81F31188BFF36F8F704723
:102AB00054030020034648B9EFF3058232B9064AB1
:102AC00051699268914201D0FFF7F6BE83F31188F5
:102AD000BFF36F8F704700BF54030020EFF31181E5
:102AE000202383F31288BFF36F8F054B9A68D37B43
:102AF000013BD37381F31188BFF36F8F704700BF21
:102B00005403002070B5EFF31186202383F312885D
:102B1000BFF36F8F144DAB68DA7B0132DA732A464C
:102B200052F8184F944200D004B9EC685A7BD20690
:102B300004D1DA897F2A01D9A2692AB1A34202D03D
:102B4000204600F095F923466B6186F31188BFF3A8
:102B50006F8FEFF31180202383F31288BFF36F8F01
:102B6000BDE87040FFF7A6BF54030020024B03F1FD
:102B70001802C3E9062270475403002070B5EFF332
:102B80001186202383F31288BFF36F8F1B4CA1683B
:102B9000E0690B68814214BF1A46002249680B6045
:102BA0005960A368E1692AB9154AC3E900210B609D
:102BB000E3610CE093F90E0092F90E50A84218D090
:102BC000854216DD5168C3E900210B605360A56999
:102BD0000B4B9D4200D005B9E568A3689D4202D029
:102BE000284600F045F965613046BDE87040FFF7C2
:102BF00063BE8A42D8D01268D5E700BF54030020D4
:102C00006C030020F8B550EA010306460C4603D1D8
:102C1000FFF7B4FF0020F8BDEFF31187202383F303
:102C20001288BFF36F8F124D124BA8681860FFF720
:102C30009DFEA868104923463246183000F098F9E6
:102C4000AA68537B43F00403537304463846FFF7E6
:102C500033FEAB68D3E90A23B3F1004F08BF002A63
:102C6000D8D101F078FC201A20EAE070D3E700BF49
:102C700054030020740300208F44000038B504463C
:102C8000EFF31185202383F31288BFF36F8F437B0B
:102C90005B070FD5183001F036FC637B23F004038B
:102CA00020466373FFF720FE29460548BDE83840FB
:102CB000FFF7EEBE85F31188BFF36F8F38BD00BFFD
:102CC00082030020014B9868704700BF5403002026
:102CD0002DE9F8430446077BEFF31185202383F3A6
:102CE0001288BFF36F8F437B190705D585F31188D1
:102CF000BFF36F8FBDE8F883D90943F008025DD1B7
:102D00004273A36813B1204601F063FB04F118007D
:102D100001F0F9FBA66D04F15808B04511D04FF051
:102D2000000976B1304601F054FB06F1180001F0BD
:102D3000EAFBC6F878903046FFF7D6FDA66DB045A1
:102D4000EFD1DFF8C080D8F808309C423ED1EFF3D5
:102D50000589B9F1000918BF4FF00109D8F81860CA
:102D6000294A964200D00EB9D8F80C60B34202D07E
:102D7000304600F07DF82046C8F8146000F057FE99
:102D8000B9F1000F02D02148FFF78AFDD8F80830CA
:102D90009C4231D1EFF3058373BB227BD20718D459
:102DA0002846FFF789FDFB07A4D5002383F311888C
:102DB000BFF36F8F0423184602DF9BE703F07F0306
:102DC00043F00803437301F0FCFA9AE74FF000095F
:102DD000C4E785F31188BFF36F8F83F31188BFF3C6
:102DE0006F8F0423184602DFEFF31180202383F353
:102DF0001288BFF36F8FD4E785F31188BFF36F8F0D
:102E0000D1E700BF540300206C030020E001002044
:102E1000427B12F01F02034610D10A4988420DD0AE
:102E20000949086868B1D9897F2909D893F90E2022
:102E3000064B1B689A42B8BF0020704700207047BD
:102E400010467047E0000020A80000207803002012
:102E5000044BC01A044BC0105843044B01221A54AF
:102E6000704700BF60020020ABAAAAAA820300201C
:102E700070B50D4B0D4D1E7CFFF7CAFF06EB4603E8
:102E800005EBC3050446284601F03DFB084B002234
:102E90009A553CB1621E28460649BDE87040D317DA
:102EA00000F066B870BD00BF54030020600200202F
:102EB00082030020512E000038B5EFF31185202346
:102EC00083F31288BFF36F8F0F4B104A9C68106812
:102ED000A04206D1FFF7CCFF85F31188BFF36F8FB7
:102EE00038BD00211B7C1160094AD35C002BF3D054
:102EF0002046FFF78DFF0028EED0637BDB0601D173
:102F0000FFF76CFD2046E5E7540300207403002022
:102F100082030020024B1868984208BF00207047C7
:102F2000AC000020034B1B680BB9FEF7A1BF0020CB
:102F3000704700BF7C03002030B570B10B4B5B685D
:102F400098420AD0036843B1D3E90421D0E904458B
:102F5000121941EB0501C3E90421D0E900321360E5
:102F60005A600023C0E9003330BD00BFAC00002030
:102F7000B3F1FF3F08BFB2F1FF3F2DE9F84F044620
:102F8000994615461F467AD08160EFF311882023B9
:102F900083F31288BFF36F8FB9F1000FDFF8E4A05D
:102FA00020DBFFF7BFFFDAE90027013549F100090F
:102FB0002D1849EBE073C4E90453AD18064643EB02
:102FC00007074FF00109FFF7A5FFDFF8BCE0DEF8C7
:102FD00004A00346EBB9C4E900EACAF80040CEF801
:102FE000044028E0DAE900126FF001035B1A4FF0A9
:102FF000FF3161EB02025B1B62EB0902012B72F1F4
:103000000001BCBF01230022C0E904324FF00009D7
:10301000D9E7D3E9041CD4E904208A4270EB0C0BF5
:1030200024DA891A5A686CEB0000C3E90410C4E979
:10303000003214605C60FFF76DFF84420ED1134BC9
:103040001B685BB9B9F1000F02D1FFF76BFF0646B1
:10305000304601F041FA0021FEF7DCFE88F31188CA
:10306000BFF36F8F28463946BDE8F88F521A60EBE0
:103070000C009A45C4E90420ADD01B68AAE70025DE
:103080002F46EFE778020020AC0000207C030020F0
:103090002DE9F047EFF31185202383F31288BFF366
:1030A0006F8FDFF8A490DFF8A480C9F80000FFF765
:1030B00031FF00260027D9F80030D8E900ECD917F5
:1030C00050B1D0E90442A34271EB020A1CDAE41ABF
:1030D00062EB0102C0E9044213EB0E034FF000045F
:1030E0004CEB01012046C8E90031C9F8004001F06D
:1030F000F3F92146FEF78EFE85F31188BFF36F8F3B
:10310000BDE8F047FFF7D8BE14EB0E024CEBE473BA
:10311000C0E90467C8E90023FFF70EFF85F31188B3
:10312000BFF36F8F83689847EFF31185202383F3F4
:103130001288BFF36F8FD9F800301B1BC9F800301D
:10314000FFF7E8FEB7E700BF7C030020780200200D
:1031500010B5EFF31184202383F31288BFF36F8F30
:10316000FFF7E0FE054A0346D2E90001181841EBDB
:10317000E37184F31188BFF36F8F10BD78020020D4
:103180002DE9F04F8DB043680293837815469A0776
:10319000804640F10D8100240E78002E00F00A8157
:1031A000252E0BD04B1C03930134029B4146304625
:1031B00098470028C0F2F6800399EDE74E788B1C03
:1031C000252E0393F0D00027B946BB46BBF11F0F55
:1031D00038D8A6F12003102B0AD8DFE803F02A091B
:1031E00009300909092109090928092D09091F00C0
:1031F000A6F13003092B33D92A2E37D11BF0400F0B
:1032000055F8043B40F08280002BA7BF4BF0200B09
:103210009946C3F100094BF0280B01E04BF0010B7C
:10322000039B13F8016B0393002ECFD130E04BF0DA
:10323000020B4BF0040BF3E74BF0080BF0E74BF0FD
:10324000100BEDE7BBF17F0F19D8A6F13003092B66
:10325000D2D81BF0400F03D00A2101FB0737DFE76C
:103260000A2101FB09394BF0200BD9E72E2E06D19C
:103270001BF0400F40F09E804BF0400BD0E76C2ECF
:1032800031D02BD8682E36D06A2E3CD04C2E3AD076
:10329000002F46F02003B8BF2BF04002A3F16501D8
:1032A000BCBF1FFA82FB0027022901D9612B2FD155
:1032B000073525F00705DFF8ACA2083507271BF016
:1032C000080F66D00AEB070B56465E4563D1A4EBA8
:1032D0000A0A06EB0A02A9EB07096FE1742E9FD0D8
:1032E0007A2E9DD0D4E71BF0800F18BF4BF4007BE3
:1032F0004BF0800B94E71BF4807F18BF4BF4007BEE
:103300004BF4807B8CE74BF4207B89E71F4687E7F3
:10331000A6F16301122900F2F080DFE811F013003A
:103320004F00EE00EE00EE00EE004F00EE00EE006B
:10333000EE00EE00EE00FE00E900EE00EE001B00E5
:10334000EE00AF0055F8043B8DF8183001270DF161
:10335000180AB4E755F804AB834BBAF1000F08BF65
:103360009A461BF0400F14BF39464FF0FF315046CC
:1033700001F00CF90746A2E7029B4146202098473E
:1033800000280FDB013EB742F6D34C44A41BB146E4
:1033900098E74E46F7E716F8010B029B414698471F
:1033A000002892DA98F8023043F0040388F80230DB
:1033B0004FF0FF3420460DB0BDE8F08F1BF0800FBA
:1033C00034D01BF4007F2CD0073525F00705AA4622
:1033D00069685AF8080B2BF010050029ADB237DAEE
:1033E000404261EB410145F480650DF1180B0A2361
:1033F0005A4601F0D7F8A0EB0B0301936B0662D598
:10340000019B25F001019F4289B240F3A180002E6B
:1034100000F0998015F0100240F09C80BB460D46EC
:1034200023E0AA465AF8040BC117D4E7AA461BF4B6
:10343000807F5AF8041B01D10846F5E71BF4007F92
:1034400015BF48B208B241F3C01141F3C031C2E721
:1034500050EA0103C9D11BF0400FC6D0002FC4D1E0
:103460002BF0110295B2BB46019740F2064115EAD6
:1034700001021CBF0BF1010B00222CE02BF010020B
:103480001FFA82FB0A231BF0800C49D01BF4007149
:103490001DBF073525F00705AA46AA461ABF5AF8E8
:1034A000080B69685AF8040B50EA010545D12BF066
:1034B00016051BF0400FADB242D0002F40D12BF0CB
:1034C000170295B2019715F0100248D0019B002E0B
:1034D00042D103F1010B29075AD4EB0706D5D94590
:1034E0006FDD0199A9EB0B035F18CB465B4649E002
:1034F0004BF0100B10237826C5E7782B04D1C6F1CA
:10350000780343F01003BEE7029B4146252098470D
:103510000028FFF647AF023447E608230026B2E74B
:10352000AA461BF480715AF8040BBDD01BF400713D
:103530001ABFC0B2614680B2B6E72BF0060295B260
:103540000DF1180B54E725F01105ADB2BB468CE721
:103550000D46B8E73B460D4603F1020BBBE7DDF82D
:1035600004B082E7A24E00009B4E0000CDE9043279
:103570004146029B202098470028FFF613AF049B8A
:10358000059A01339945F1DCA4EB0B01CC189B465D
:103590000AB3029B4146302098470028FFF602AF4D
:1035A0008EB901342744019B391B994224DC1D4606
:1035B0005DBB019AA9EB0B09224455461446914480
:1035C00035E0019F92E7023441463046029B98471E
:1035D0000028E7DAE6E640F206410D42E2D015F0B7
:1035E000020F14BF2B20202015F4806F04F101047A
:1035F000414618BF2D20E9E7029B414630209847FD
:10360000002804F10104CEDACCE606AB013D4146C8
:10361000585D029B98470028CADAC3E6029B4146E0
:1036200020209847002804F10104FFF6BBAEA9EB67
:103630000403002BF2DCBFE57047F0B403460A46F2
:103640001979DB8800681343DC028768066906D5B0
:1036500013F4402F03D0DA0748BF83F440233468C3
:1036600001258D4023F48012DB074CBF2C43AC4373
:1036700034603B68F0BC1847836800EBC101B3F5C8
:10368000004F2CBF51F8220031F81200704700EBB8
:10369000C1018068B0F5004F2CBF41F8223021F8FD
:1036A0001230704708B50122FFF7E6FFD04008BD91
:1036B0008368B3F5004F00EBC10108D34B681AB122
:1036C00043F001034B60704723F00103FAE74B8896
:1036D0001AB143F001034B80704723F00103FAE76E
:1036E00053000122FFF7D3BF8368B3F5004F34BF07
:1036F00004230823481C0833A0EBD300B0FA80F061
:10370000C0F11F0070472DE9F0410D468668044660
:10371000FFF7C8FFB6F5004F014601D3012832D0AC
:103720002046FFF7E1FF04EB80010E6996B9E368DC
:10373000012282401343E36002220D612B46294699
:103740002046FFF7A4FF032229462046BDE8F041AA
:10375000FFF79DBF022231462046FFF78DFF294625
:10376000034607462046FFF792FF032233462946C9
:103770002046FFF78CFF39462B462046FFF787FF90
:1037800002223146E1E7BDE8F081B2F5802F2CBF7F
:1037900008230423D21A2DE9F0418C18CD1D25F001
:1037A000070524F00704641B0026E4080560214691
:1037B000AC60EE602846FFF797FF421D9200013093
:1037C00002F107074FEAD707A2F110023146B8BF4E
:1037D000324605F1100000F0D1FE3A463146284647
:1037E000FFF77EFF3346324631462846FFF74FFF4C
:1037F000A4EB0708284631460122FFF759FF42464D
:103800003946FFF76DFF3B46324639462846FFF7FB
:103810003EFF21462846FFF763FF434632462146D6
:103820002846FFF734FF214628460122FFF740FFD4
:103830003946BDE8F041FFF766BF002070470FB47E
:1038400007B504A951F8040B0191FCF7B7FC03B0CC
:103850005DF804EB04B07047038B13F0070305D148
:103860000368002B0CBF002003207047022B05D1FA
:10387000408BB0FA80F0400980007047012B05D1E1
:103880000368002B0CBF0020052070470020704704
:1038900010B50C4600B111B96FF0150010BD081D30
:1038A00000F093F80028F9D1A368032BF6D9F3E7C9
:1038B0002DE9F0410D4607461946281D90461E4643
:1038C00000F094F8044638B133464246294638465B
:1038D000A446BDE8F0416047BDE8F08110B4EFF3C5
:1038E0001182202484F31288BFF36F8F416110BCD2
:1038F0000121FCF795BC38B50C46054658B151B1CD
:103900000B6843B14B6833B11C22002100F036FE36
:103910002C61002038BD6FF01500FBE770B505463F
:103920000E46FFF7B5FF041E14DBEFF311822023D0
:1039300083F31288BFF36F8F6B8B2C8B4FF6FF7165
:103940008B4204F0070407D182F31188BFF36F8F15
:103950006FF00A04204670BD022C0CD101336B833A
:1039600082F31188BFF36F8F002322463146284629
:10397000FFF79EFFEEE7062C14D8DFE804F00413EF
:103980001313041A0400002333606B683BB9C5E9C4
:103990000066ACB902212846FCF742FCDAE71E605B
:1039A0006E60F6E782F31188BFF36F8F6FF0040447
:1039B000D0E782F31188BFF36F8F6FF08504C9E7FA
:1039C00082F31188BFF36F8FC4E7034658B1426892
:1039D00002F00302012A03D0032A04D1026812B1C3
:1039E0000020986070476FF0150070474268816052
:1039F00002F00302032A4FF0000203460CBF0068E6
:103A000010465A607047704700F0B8BD00F0A8BD7E
:103A100001460068FCF74EBD08B5FCF77BFDBDE82C
:103A20000840FCF79BBD00210120FCF743BD6FF06F
:103A30008500704761B662B680F31188BFF36F8F5F
:103A4000704772B6002383F31188BFF36F8FBFF303
:103A50004F8F30BF62B6BFF36F8F704772B60023CF
:103A600083F31188BFF36F8FBFF34F8F20BF80F3B5
:103A70001188BFF36F8F62B67047202809D9B0F163
:103A8000004F08D80138B0FA80F0C0F11F004000A4
:103A90007047082070473E20704708B5FDF76AFA66
:103AA000002008BD0369C9B20C2201FB0233186C67
:103AB00000F00700704770B5C9B20369EFF31185D4
:103AC000202484F31288BFF36F8F0C2606FB013489
:103AD000246C14F0C00408D0A24206D085F31188EB
:103AE000BFF36F8F4FF0FF3070BD06FB0133012233
:103AF0001A6485F31188BFF36F8F436803EBC1032A
:103B00005B6898470020EFE78022FFF7D4BFF8B545
:103B1000069F0469C9B2EFF31186202585F3128848
:103B2000BFF36F8F0C2505FB0144256C05F0070CD6
:103B3000BCF1010F0CD1276486F31188BFF36F8F9E
:103B4000C4E90E23436853F8313098470020F8BD8C
:103B500005F0C005AF4286F31188BFF36F8F0CBF2D
:103B60006FF077004FF0FF30F1E713B58024009439
:103B7000FFF7CDFF02B010BD10B40069CBB21C241A
:103B800003FB0400002110BC10471046FEF7E2BD05
:103B900000F006B9FEF7B4BA43685B68D3F8103595
:103BA0000B600020704743685B6802EA010021EA6D
:103BB0000201C3F80805C3F80C15002070474368DC
:103BC0005B680020C3F80815704743685B680020F5
:103BD000C3F80C15704743685A68D2F8043521EAD7
:103BE00003000B40C2F80805C2F80C3500207047EE
:103BF00010B503695868F8B1884219D19C68086803
:103C00005860A14200D19860002008602AB15A682B
:103C10000A609A68596002B99960002010E08142F8
:103C200006D10868206098688142EDD19C60EBE77E
:103C3000044600680028F2D1002AE8D16FF0150090
:103C400010BDFEF771BB30B543681360057A446858
:103C500004EBC504A34202D36FF0010030BD5C79D0
:103C60008C4201D00833F0E70020F7E700F1500361
:103C70009B009BB203F1804303F5883300221A6056
:103C80001B68704703460020184700F057BB10B56B
:103C900002461168B1B1BFF35B8FB1FA81F3C3F192
:103CA0001F000123834021EA030352E8004F8C42A6
:103CB00004D142E8003CBCF1000FF6D1BFF35B8FAA
:103CC000E7D110BD6FF00B00FBE710B50368CB40E8
:103CD000DB0714D401238B400268BFF35B8F43EAF8
:103CE000020150E8004F944204D140E8001CBCF1AE
:103CF000000FF6D1BFF35B8FEED1002010BD6FF047
:103D00001500FBE710B1012802D07047FEF7F8B9A3
:103D1000FEF7B0B918B1012803D100F026B800F0C1
:103D20003FB8704708B5FEF7C1F9BDE80840FEF797
:103D300027BA38B54FF080440123C4F808336360D4
:103D40000023C4F80031D4F8003142F21075D4F8E1
:103D50000C24D4F80C34D20306D5DB0704D501209B
:103D6000FFF793FF013DF2D138BDFFF7E2BF38B551
:103D70004FF080440223C4F808330123E36000239A
:103D8000C4F80431D4F8043142F21075D4F8183470
:103D9000DB0304D50120FFF778FF013DF6D138BDE4
:103DA000FFF7E5BFF7B5019001A8DDE90847164622
:103DB0001D46FEF71DFA019BB6F1000C18BF4FF02F
:103DC000010C00EB83000B1E18BF0123002D43EAFA
:103DD0004C0314BF4FF00C0C4FF0000C002C43EAC6
:103DE0000C0314BF4FF4E06C4FF0000C002F43EABB
:103DF0000C03D0F8002714BF4FF4403C4FF0000CE8
:103E000043EA0C0322EA030301B109780EB13678C4
:103E1000760019430DB12D78AD0031430CB12478F3
:103E2000240229430FB13F783F040C433C43C0F8C0
:103E3000004703B0F0BD1FB50DF10F030193002340
:103E40008DF80F1000931A461946FFF7ABFF05B027
:103E50005DF804FB10B504460846FEF7D9F904EBFB
:103E60004004A08AC0F3401010BD10B504460846B7
:103E7000FEF7CEF904EB4004A08AC0F3400010BD69
:103E800010B504460846FEF7C3F904EB4004A08AC7
:103E9000400B10BD70B5044608461646FEF7B8F94B
:103EA00008300D4634F81030DA0509D5C3F3432342
:103EB00004EBC302314654F8333052682846984721
:103EC000A3682BB1E26831462846BDE87040184728
:103ED00070BD10B504460846FEF79AF900B204EB2F
:103EE0004000838ADA051DD5C3F3432123F4F85338
:103EF000838204F1120204F1660032F8023F13F4E7
:103F0000807F03D0C3F3432399420BD08242F4D184
:103F100004EBC10300225A6004F16C00BDE81040BC
:103F2000FFF7D3BE10BDF0B5034600F58074002046
:103F300005460127844695420AD1D3F87C2132B147
:103F40000022C3F87C21D3F87C3140F00040F0BD62
:103F500025F0404607FA06F6314209D0D4F800E0D1
:103F6000BEF1000F04D0C4F800C0D4F800E0304324
:103F700001350434DFE738B504460D46FFF76AFF24
:103F8000B0B12046FFF771FF90B92046FFF778FFE8
:103F9000226801238340C2F80833236800B203EB90
:103FA0008003D3F8102522F00302C3F8102538BD92
:103FB00028460021BDE83840FFF73DBF2DE9F0431A
:103FC000174685B004460846FEF722F9D7F8008068
:103FD0000E460546B8F1000F1FD02046FFF745FFFB
:103FE00018B12046FFF736FF30BB0023CDE9003380
:103FF0008DF80E308DF80F300DF10F0243460DF1A4
:104000000E013046FFF7CEFE2AB204EB4202938A3D
:1040100023F0020343F0010393827B68002B34D02A
:104020003146204693F80080D3F80490FFF71DFF37
:1040300028B1B9F1000F1FD06FF0150028E028B2A9
:1040400004EB4000838A23F4604323F0200383823F
:10405000B9F1000F10D0B8F1030FEDD87B682168DB
:104060005B6893F800C001EB8C01B8F1000F12D12E
:10407000C1F81085C1F810852AB204EB4202938A78
:1040800023F01C0343EA88039382BB684BBB0020E8
:1040900005B0BDE8F083D1F8102522F00302C1F885
:1040A0001025226802EB8C03D3F8102522F44F323E
:1040B00022F44072C3F810253202D3F8101502F42E
:1040C0007C5242EA08420A43C3F8102504EB4C0331
:1040D000A3F87060838A43EA4C3343F02003838261
:1040E000CAE7D3E9007831462046FFF7F2FE002FF9
:1040F000CDD063689F4206D004F16C00FFF7C7FD86
:10410000002804DAC4E7A3689845F5D1002004EB41
:10411000C003C3E901782DB204EB4505C0B2AB8AF8
:1041200043EA402343F48073AB82B0E72DE9F043C8
:10413000054685B0084617461E46FEF769F80C4648
:10414000804637B32846FFF790FE18B92846FFF798
:1041500081FE28BB0FFA88F905EB4909B9F814303C
:1041600013F01C0F02D07B78012B19D001238DF89E
:104170000F300023CDE900737A1CBB1C0DF10F0139
:104180002046FFF70FFEB9F8143043F00303A9F8F7
:104190001430002E41D021462846FFF766FE20B994
:1041A0006FF0150005B0BDE8F08337782B6803EB9E
:1041B00087030022C3F81025C3F810250FFA88F2F0
:1041C00005EB42024FEA870C938A23F4604323F005
:1041D00020039382707800B32968B67861440004A4
:1041E000D1F8103523F4991323F4F853C1F810359E
:1041F000230200F4403003F47C5303433005D1F82C
:10420000105500F4801003432B43C1F81035938AF6
:1042100043EA473343F0200393820020C2E7C0E91A
:104220000312704770B504461546FFF713FE48B1F8
:104230000846FDF7EDFF04EB40040020A38A5B0B6A
:104240002B7070BD6FF01500FBE738B590F880401B
:1042500005469CB954222146143000F08FF9286895
:10426000C0F87C41D0F87C3140F30730FCF752FCB9
:10427000012385F88030EB66204638BD6FF077006B
:10428000FBE790F88000003818BF01207047FDF769
:10429000FBBF2DE9F34104461746FFF7DBFD0D4652
:1042A000266800B32046FFF7E0FD8046D8B92046D7
:1042B000FFF7E6FD05B2AD0005F5807246F8028015
:1042C0002168B2582944D1F8102542F00102C1F802
:1042D00010252FB12168012202FA00F3C1F804333E
:1042E00002B0BDE8F081D6F80433002BA4BF4FF034
:1042F0000043C6F804332846FDF78AFF04EB400468
:10430000A38AC3F38203042B12D0052B12D001A879
:104310000195FDF76DFF019BD0F81015D94001F014
:1043200001010231284602B0BDE8F041FFF783BD2C
:104330000321F7E70221F5E7FFF71DBE08B1FCF7FF
:104340004BBE704710B5436904463BB90020E26894
:10435000537843F001035370404210BD9847002842
:10436000F4D00028B8BF4042E368FF28A8BFFF2070
:104370001870ECE740B1C368587810F001001EBF18
:104380001878B0FA80F040097047EFF311832023CA
:1043900083F31288BFF36F8FFEE708B5FFF7F5FFD1
:1043A00008B52024EFF3118384F31288BFF36F8FD5
:1043B000FFF747FBF6E7EFF30580003818BF012051
:1043C0007047D0E9003213605A600023C0E900331F
:1043D000704708B5FFF7F5FF437B23F002034373F3
:1043E0000023836008BD38B504460D46FEF7BEFACB
:1043F000637B43F002036373E5B1A5602B689D42C4
:1044000009D16B68C4E900531C606C6012E06A68F3
:104410009A42F6D01B68002BF3D094F90E2093F942
:104420000E108A42F3D09142F1DD5A68C4E900329D
:1044300014605C6038BD10B5EFF31184202383F362
:104440001288BFF36F8FFEF74FFA84F31188BFF322
:104450006F8F10BD10B50146EFF31184202383F355
:104460001288BFF36F8F437B13F0280F0AD1836844
:104470000BB1FFF7AEFF4B7B23F004034B730846F1
:10448000FEF732FA84F31188BFF36F8F10BD01215C
:104490001838FFF7DFBF70B505460E46FEF7B2FBD2
:1044A000B6F1FF3F08BFB5F1FF3F0446284612D0E2
:1044B0004FF47A7147F6FF730022C4FB0132D80B28
:1044C00040EA4240B0F1004F4FEAD23272F10002AE
:1044D00028BF6FF0004070BD08B50246FEF71AFD18
:1044E00070B1D0E904319B1A61EBE272B3F1004F75
:1044F00072F1000104DA002AACBF1846002008BDA2
:104500006FF00040FBE738B50246EFF3118520233A
:1045100083F31288BFF36F8F0368CBB1FEF7FAFC09
:1045200004461046FEF708FD00224FF00043844287
:10453000C0E9042306D1FEF7F5FCFFF7CDFF00210B
:10454000FDF768FC002085F31188BFF36F8F38BD3D
:104550006FF01500F7E708B5FEF7FAFD08BD7047E4
:104560000A44914200F1FF3300D1704710B511F8B1
:10457000014B03F8014F9142F9D110BD02440346AB
:10458000934200D1704703F8011BF9E710B50246CA
:1045900001448A42134603D01C780132002CF8D122
:1045A000181A10BDF0B5C3F137070446FFB203F087
:1045B0001F031046082BE6B233D0102B3ED06508FF
:1045C000A40844EA817445EAC1752D194FEA9102A5
:1045D00042EB5102290941EA02716D1842EB1212B5
:1045E000290A41EA02616D1842EB1222290C41EAC4
:1045F00002416D1842EB1242AD1842F10002EC0884
:1046000044EA4274D10804EB8402A6EB4205EDB201
:10461000092D0CD90134A5F10A0541F10001EDB2D3
:1046200012E0E40844EA417406F00705C908303591
:1046300054EA010200F8015BBCD1F0BD240944EA50
:10464000017406F00F050909092D84BFED19EDB2BB
:10465000EDE7000001480068704700008C02002070
:10466000C10F00000000000000000000A84600008C
:1046700000000000E046000000000000C44600000A
:1046800000000000FC4600000D13000000000000C8
:10469000B11C0000000000009D0F000000000000A1
:0846A0004904000000000000C5
:1046A800434E000040490000BC480000B400002010
:1046B800C00200207110000000000000524E0000EF
:1046C8005049000098480000B6000020140300205C
:1046D800AD14000000000000604E000064490000B6
:1046E80098480000B800002020030020AD14000006
:1046F80000000000764E000078490000D84800000D
:10470800BA00002098000020951800000000000062
:10471800253D0000853C000000000000273A00000D
:1047280000000000273A000000000000273A0000BF
:1047380000000000273A000000000000273A0000AF
:1047480014000020433C000000000000273A00004D
:1047580000000000273A000000000000273A00008F
:1047680000000000273A000000000000273A00007F
:1047780000000000273A000000000000273A00006F
:1047880000000000273A000000000000273A00005F
:1047980000000000273A000000000000411D000052
:1047A80000000000273A000000000000273A00003F
:1047B80000000000273A000000000000273A00002F
:1047C80000000000273A000000000000273A00001F
:1047D80000000000273A000000000000273A00000F
:1047E80000000000273A000000000000273A0000FF
:1047F80000000000273A000000000000273A0000EF
:1048080000000000273A000000000000273A0000DE
:1048180000000000273A000000000000273A0000CE
:1048280000000000273A000000000000273A0000BE
:1048380000000000273A000000000000273A0000AE
:1048480000000000273A000000000000273A00009E
:1048580000000000273A000000000000273A00008E
:1048680000000000273A000000000000273A00007E
:1048780000000000273A000000000000273A00006E
:1048880000000000273A000000000000273A00005E
:10489800E9140000993B0000A73B0000BF3B000063
:1048A800CB3B0000D73B00005D130000F13B00004C
:0448B80000000000FC
:1048BC00C9100000093B00006B3B00000000000029
:0C48CC00A53A0000000000000000000001
:0C48D800E5170000191800000918000086
:1048F0000338FDD870470000E046000004000100C6
:10490000E04600000200110000000020000000004E
:1049100000000B06020000001C490000000000001F
:10492000344E000024000206000000203C4E00002F
:1049300020000B112D100000FD0F000000000000F2
:104940007D110000FD100000953B0000913B000030
:10495000FF030000000300501400002000000000CE
:1049600001000000FFFFFFFF0000005014000020C6
:1049700000000000000000007C4900000020004012
:10498000884900000100000090490000020000007A
:10499000130000000F0000010800000003000000E9
:1049A0006046000060460000904600009846000007
:1049B000A0460000A8460000496E746572727570CA
:1049C00074210A002A2A2A20426F6F74696E6720B8
:1049D0006E524620436F6E6E6563742053444B20C5
:1049E00076332E332E312D316437613062306534A9
:1049F000396238202A2A2A0A002A2A2A205573696D
:104A00006E67205A6570687972204F532076342E75
:104A1000332E39392D3337653663323835373665BD
:104A200065202A2A2A0A0072302F61313A2020306C
:104A30007825303878202072312F61323A202030AA
:104A40007825303878202072322F61333A20203098
:104A500078253038780A0072332F61343A202030BC
:104A60007825303878207231322F69703A20203022
:104A70007825303878207231342F6C723A2020300B
:104A800078253038780A0020787073723A20203008
:104A900078253038780A004661756C74696E672035
:104AA000696E737472756374696F6E206164647289
:104AB00065737320287231352F7063293A2030785E
:104AC000253038780A00556E68616E646C65642024
:104AD0004952516E3A2025640A002A2A2A2A2A209D
:104AE0004D5055204641554C54202A2A2A2A2A0A3C
:104AF000002020537461636B696E67206572726F6A
:104B0000722028636F6E746578742061726561200D
:104B10006D69676874206265206E6F742076616CC1
:104B20006964290A002020556E737461636B696E95
:104B300067206572726F720A0020204461746120E0
:104B40004163636573732056696F6C6174696F6E3E
:104B50000A0020204D4D4641522041646472657325
:104B6000733A20307825780A002020496E737472D9
:104B7000756374696F6E2041636365737320566952
:104B80006F6C6174696F6E0A002020466C6F6174EF
:104B9000696E672D706F696E74206C617A7920730D
:104BA0007461746520707265736572766174696F83
:104BB0006E206572726F720A002A2A2A2A2A2055EC
:104BC00053414745204641554C54202A2A2A2A2A37
:104BD0000A0020204469766973696F6E206279202B
:104BE0007A65726F0A002020556E616C69676E6588
:104BF00064206D656D6F7279206163636573730AFC
:104C00000020204E6F20636F70726F636573736F47
:104C10007220696E737472756374696F6E730A00C3
:104C20002020496C6C6567616C206C6F6164206F3B
:104C300066204558435F52455455524E20696E7464
:104C40006F2050430A002020496C6C6567616C201E
:104C5000757365206F662074686520455053520A4D
:104C6000002020417474656D707420746F20657825
:104C7000656375746520756E646566696E6564202C
:104C8000696E737472756374696F6E0A002A2A2ADA
:104C90002A2A20425553204641554C54202A2A2A7C
:104CA0002A2A0A002020537461636B696E672065AD
:104CB00072726F720A0020205072656369736520FA
:104CC0006461746120627573206572726F720A008C
:104CD00020204246415220416464726573733A2039
:104CE000307825780A002020496D707265636973F9
:104CF00065206461746120627573206572726F72E1
:104D00000A002020496E737472756374696F6E2097
:104D1000627573206572726F720A005265736572F4
:104D200076656420457863657074696F6E2028002D
:104D300053707572696F757320696E7465727275E0
:104D4000707420284952512000535053454C20691B
:104D50006E20746872656164206D6F646520646F95
:104D60006573206E6F7420696E6469636174652079
:104D70005053500A002A2A2A2A2A20484152442005
:104D80004641554C54202A2A2A2A2A0A0020204229
:104D90007573206661756C74206F6E207665637420
:104DA0006F72207461626C6520726561640A002014
:104DB000204465627567206576656E740A00202060
:104DC0004661756C7420657363616C6174696F6EA4
:104DD00020287365652062656C6F77290A0041524F
:104DE00043485F45584345505420776974682072A2
:104DF0006561736F6E2025780A0A002A2A2A2A2AFA
:104E0000204465627567206D6F6E69746F722065EE
:104E10007863657074696F6E202A2A2A2A2A0A002C
:104E20002A2A2A2A2A20257320256429202A2A2A88
:104E30002A2A0A00464C4153485F30005352414DE4
:104E40005F3000636C6F636B403430303030303033
:104E500030006770696F40353030303033303000AB
:104E60006770696F403530303030303030000001CD
:104E70000203040506077561727440343030303225
:104E80003030300000202A2A2A2A2A2A2A2A2A2ACE
:104E90002A2A2A2A00016D61696E00286E756C6CE1
:0C4EA00029002A666C6F61742A00000073
:104EAC003B380000000000009B3A000000000000AE
:104EBC000000000000600040000000000000000046
:104ECC0000000000000000000000000000000000D6
:104EDC0000000000000000000000000000000000C6
:104EEC0000000000000000000000000000000000B6
:104EFC0000000000000000000000000000000000A6
:104F0C000000000000000000000000000000000095
:104F1C000000000000000000000000000000000085
:104F2C000000000000000000000000000000000075
:104F3C00000000000000000000C20100000103009E
:104F4C000090D003FF00000090020000AC00002095
:044F5C00AC00002085
:084F6000000000000000000049
:044F680015E015E05B
:040000030000098967
:00000001FF
